:020000040800F2
:10000000680300208D010008950100089701000891
:10001000990100089B0100089D01000800000000F4
:100020000000000000000000000000009F01000828
:10003000A101000800000000A3010008A5010008BC
:10004000A7010008A7010008A7010008A7010008F0
:10005000A7010008A7010008A7010008A7010008E0
:10006000A7010008A7010008A7010008A7010008D0
:10007000A7010008A7010008A7010008A7010008C0
:10008000A7010008A7010008A7010008A7010008B0
:10009000A7010008A7010008A7010008110800082F
:1000A000A7010008A7010008A7010008A701000890
:1000B000A7010008A7010008A7010008A701000880
:1000C000A7010008A7010008A7010008A701000870
:1000D000A7010008A7010008A7010008A701000860
:1000E000A7010008A7010008A701000800F002F816
:1000F00000F03CF80AA090E8000C82448344AAF186
:100100000107DA4501D100F031F8AFF2090EBAE883
:100110000F0013F0010F18BFFB1A43F0010318473B
:100120003C1600005C160000103A24BF78C878C165
:10013000FAD8520724BF30C830C144BF04680C60ED
:10014000704700000023002400250026103A28BF35
:1001500078C1FBD8520728BF30C148BF0B60704739
:100160001FB501F0DBFA1FBD10B510BD00F063F83C
:100170001146FFF7F5FF01F03BF900F081F803B4F9
:10018000FFF7F2FF03BC00F08BF80000094880473E
:1001900009480047FEE7FEE7FEE7FEE7FEE7FEE769
:1001A000FEE7FEE7FEE7FEE704480549054A064B81
:1001B00070470000D9110008ED0000086800002019
:1001C00068030020680100206801002010B5203A73
:1001D000C0F00B80B1E81850203AA0E81850B1E800
:1001E0001850A0E81850BFF4F5AF5FEA027C24BFB6
:1001F000B1E81850A0E8185044BF18C918C0BDE8AD
:1002000010405FEA827C24BF51F8043B40F8043B75
:1002100008BF7047D20728BF31F8023B48BF11F82A
:10022000012B28BF20F8023B48BF00F8012B704784
:10023000704770477047754600F028F8AE460500D5
:100240006946534620F00700854618B020B5FFF7F1
:10025000ABFFBDE820404FF000064FF000074FF025
:1002600000084FF0000B21F00701AC46ACE8C009D4
:10027000ACE8C009ACE8C009ACE8C0098D467047DD
:100280000446AFF300802046FFF779FF004870472F
:100290000400002001487047704700BF080000209C
:1002A00001491820ABBEFEE726000200704700009F
:1002B0002DE9F04F89B00027B846002638E000F05D
:1002C00095FC0B2802D00C2806D102E04FF0000963
:1002D00003E04FF0010900E02AE000BF4FF47A701C
:1002E00000F05AFA0121FD4800F07DFC0DE000F01D
:1002F0007DFC07EB870100EB41074FF47A7000F0BB
:100300004BFA0121F54800F06EFC0121F34800F0A2
:100310005FFC0028EBD10121F14800F064FC4FF4B0
:100320007A7000F039FA0121ED4800F05AFC00E043
:10033000C5E700BFB9F1000F04D16FF0630007FB00
:1003400000FA02E0642007FB00FA38E000F04EFCFF
:100350000B2802D00C2806D102E00020069003E012
:100360000120069000E02AE000BF4FF47A7000F010
:1003700013FA0121D94800F036FC0DE000F036FCFC
:1003800008EB880100EB41084FF47A7000F004FAA2
:100390000121D24800F027FC0121D04800F018FCD0
:1003A0000028EBD10121CE4800F01DFC4FF47A70FB
:1003B00000F0F2F90121CA4800F013FC00E0C5E7A3
:1003C00000BF069820B96FF0630008FB00FB02E055
:1003D000642008FB00FB3AE000F008FC0B2802D088
:1003E0000C2806D102E00020059003E001200590D2
:1003F00000E02CE000BF4FF47A7000F0CDF901214D
:10040000B64800F0F0FB0FE000F0F0FB089901EBBC
:10041000810100EB410008904FF47A7000F0BCF9C4
:100420000121AE4800F0DFFB0121AC4800F0D0FB19
:100430000028E9D10121AA4800F0D5FB4FF47A70D9
:1004400000F0AAF90121A64800F0CBFB00E0C3E7C9
:1004500000BF059828B96FF06301089848430290DF
:1004600003E064210898484302903AE000F0BEFBA4
:100470000B2802D00C2806D102E00020049003E0F3
:100480000120049000E02CE000BF4FF47A7000F0EF
:1004900083F90121914800F0A6FB0FE000F0A6FBD4
:1004A000079901EB810100EB410007904FF47A704E
:1004B00000F072F90121894800F095FB012187487D
:1004C00000F086FB0028E9D10121854800F08BFB74
:1004D0004FF47A7000F060F90121814800F081FB4F
:1004E00000E0C3E700BF049828B96FF063010798E4
:1004F0004843019003E064210798484301901BE0C2
:1005000000F074FB0B2802D00C2806D102E000207A
:10051000039003E00120039000E00DE000BF012103
:100520006F4800F060FB4FF47A7000F035F901215C
:100530006B4800F056FB00E0E2E700BF64220121B7
:10054000C82000F00DFF642007FB00F24946C820D8
:1005500000F072FE642008FB00F2C820069900F04B
:10056000B5FE64220021C82000F0FAFE039878BB93
:1005700054465D4600BF002C19DD002D17DB002E10
:100580000ADB01220021642000F056FE022000FB5D
:100590001460461C641E5EE001221146C82000F073
:1005A00095FE022000FB0560461C6D1C53E0002CEC
:1005B0001ADC002D18DD002E0BDB01220021C820E3
:1005C00000F084FE022000FB1560461C6D1E42E018
:1005D00048E001220021642000F02EFE022000FBF2
:1005E0001460461C641E36E0002C19DA002D17DC5E
:1005F000002E0ADB01221146642000F01DFE0220BD
:1006000000FB0460461C641C25E001220021C82078
:1006100000F05CFE022000FB1560461C6D1E1AE017
:10062000002C18DB002D16DA002E0ADB0122114601
:10063000C82000F04BFE022000FB0560461C6D1C2C
:1006400009E001221146642000F0F6FD022000FBC3
:100650000460461C641C0298844202D001988542C2
:1006600089D17CE054465D4600BF002C19DB002D8B
:1006700017DD002E0ADB01220021C82000F026FE33
:10068000022000FB1560461C6D1E62E0012211462F
:10069000642000F0D1FD022000FB0460461C641CB5
:1006A00057E0002C1EDD002D1CDC002E0ADB012291
:1006B0000021642000F0C0FD022000FB1460461CF5
:1006C000641E46E001220021C82000F0FFFD022048
:1006D00000FB1560461C6D1E3BE00000000C014055
:1006E00000080140002C19DC002D17DA002E0ADB6F
:1006F00001221146C82000F0E9FD022000FB056040
:10070000461C6D1C25E001220021642000F094FDB0
:10071000022000FB1460461C641E1AE0002C18DA4C
:10072000002D16DB002E0ADB01221146642000F0AA
:1007300083FD022000FB0460461C641C09E00122CA
:100740001146C82000F0C2FD022000FB0560461CD7
:100750006D1C0298844202D00198854285D109B06F
:10076000BDE8F08F4FF0E021096921F004014FF05E
:10077000E0221161C21700EB5272D210044B1A70C2
:10078000194609784FF47A725143024A1180704732
:10079000000000200200002001460D4A12884A4352
:1007A0004FF0E0235A6100229A6101221A6100BFD2
:1007B0004FF0E022106910F0010F02D010F4803FDA
:1007C000F6D000224FF0E0231A619A6170470000D2
:1007D0000200002001460D4A12784A434FF0E02300
:1007E0005A6100229A6101221A6100BF4FF0E02293
:1007F000106910F0010F02D010F4803FF6D00022F3
:100800004FF0E0231A619A61704700000000002059
:100810000121454800F0E7F94FF40071434800F02A
:10082000E2F94FF48071414800F0DDF980213F4842
:1008300000F0D9F94820FFF795FF05E001221146A5
:100840004FF4FA7000F08CFD4FF40071384800F05E
:10085000BFF90128F2D04FF4007000F06BF825E0EA
:100860000821334800F0BFF90421314800F0BBF9FA
:1008700002212F4800F0B7F901212D4800F0B3F90B
:1008800008212B4800F0A4F928B9012211464FF4A1
:10089000FA7000F0D1FC0421254800F099F928B93C
:1008A000012200214FF4FA7000F0C6FC802120489C
:1008B00000F08EF90028D3D125E008211C4800F073
:1008C00092F904211A4800F08EF90221184800F02C
:1008D0008AF90121164800F086F90221144800F037
:1008E00077F928B9012211464FF4FA7000F0EEFCB6
:1008F00001210F4800F06CF928B9012200214FF4C2
:10090000FA7000F0E3FC4FF48071094800F060F9E0
:100910000028D2D10121044800F063F9402000F002
:1009200009F800BFFEE70000000801400010014088
:10093000000C0140014908607047000014040140A8
:10094000002127498279DAB3264AD2F800240368C5
:100950009A43244BC3F800241A46D2F804240368AF
:100960009A4301F104031A60027911440A6803688A
:1009700042EA03020A601B4AD2F80824036822EA0A
:100980000302184BC3F808241A46D2F80C24036853
:1009900022EA0302144B1A604279102A11D1114A3B
:1009A000D2F8082403681A430E4BC3F808241A46E9
:1009B000D2F80C2403681A430A4BC3F80C240EE047
:1009C00007E00749427911440A6803681A430A603C
:1009D00005E0027911440A6803689A430A60704787
:1009E00000040140000001400C04014030B5002229
:1009F0008B071C0F0F2303FA04F20B4B8C1053F8D8
:100A000024309343084C8D1044F8253023468C1035
:100A100053F824308C07240F00FA04F42343024CCB
:100A20008D1044F8253030BD080001402DE9F0411B
:100A3000024600250026002000230024002791F80C
:100A400003C00CF00F0591F803C01CF0100F03D089
:100A500091F802C04CEA0505B1F800C01CF0FF0F88
:100A600031D0146800202BE04FF0010C0CFA00F399
:100A7000B1F800C00CEA03069E4220D183004FF07B
:100A80000F0C0CFA03F7BC4305FA03FC4CEA040410
:100A900091F803C0BCF1280F06D14FF0010C0CFAFD
:100AA00000FCC2F814C00AE091F803C0BCF1480F82
:100AB00005D14FF0010C0CFA00FCC2F810C0401C2C
:100AC0000828D1D31460B1F800C0BCF1FF0F34DDA9
:100AD000546800202EE000F1080C4FF0010808FADD
:100AE0000CF3B1F800C00CEA03069E4221D183004A
:100AF0004FF00F0C0CFA03F7BC4305FA03FC4CEA69
:100B0000040491F803C0BCF1280F05D100F1080CD2
:100B100008FA0CF8C2F8148091F803C0BCF1480F31
:100B200007D100F1080C4FF0010808FA0CF8C2F8E0
:100B30001080401C0828CED35460BDE8F08100002E
:100B4000F0B50A46002300240021002500F00046ED
:100B5000B6F1004F02D11D4EF16901E01B4E7168E4
:100B6000C0F3034583B200F44016B6F5401F08D128
:100B700021F07061154E766826F07066134F7E6026
:100B800012E000F48016B6F5801F06D1032606FA9F
:100B900005F4A14341F0706106E0460D360103FA09
:100BA00006F6B14341F0706122B1460D360103FAF9
:100BB00006F6314300F00046B6F1004F02D1034E75
:100BC000F16101E0014E7160F0BD000000000140E4
:100BD0000246002093680B4201D0012000E0002073
:100BE00070474161704701617047000070B58CB07B
:100BF00030224A496846FFF7E9FA14244820FFF7F3
:100C0000B1FD85E008214648FFF7EDFF0421444887
:100C1000FFF7E9FF02214248FFF7E5FF01214048C5
:100C2000FFF7E1FF10213E48FFF7DBFF20213C48A2
:100C3000FFF7D7FF40213A48FFF7D3FF0821384894
:100C4000FFF7C6FF80B104213548FFF7C1FF58B157
:100C500002213348FFF7BCFF30B101213048FFF7D4
:100C6000B7FF08B1012000E00020F0BB0A20FFF729
:100C700093FD08212A48FFF7ABFF00B900260421A5
:100C80002748FFF7A5FF00B9012602212448FFF7F6
:100C90009FFF00B9022601212148FFF799FF00B903
:100CA000032608211E48FFF79CFF04211C48FFF77C
:100CB00098FF02211A48FFF794FF01211848FFF717
:100CC00090FF10211648FFF78EFF20211448FFF7F0
:100CD0008AFF40211248FFF786FF10211048FFF7D6
:100CE00077FF00B90025202100E010E00C48FFF755
:100CF0006FFF00B9012540210948FFF769FF00B9DE
:100D00000225684600EB051050F8264000E0142448
:100D1000142C3FF477AF20460CB070BD2C170008A0
:100D2000000C01402DE9F84F4FF0000B002000901F
:100D3000804638E0FFF75AFF0B2802D00C2806D176
:100D400002E04FF0000903E04FF0010900E02AE063
:100D500000BF4FF47A70FFF71FFD01217E48FFF7B7
:100D600042FF0DE0FFF742FF0BEB8B0100EB410B65
:100D70004FF47A70FFF710FD01217748FFF733FF3A
:100D800001217548FFF724FF0028EBD101217348AA
:100D9000FFF729FF4FF47A70FFF7FEFC01216F483F
:100DA000FFF71FFF00E0C5E700BF3AE0FFF71EFFB7
:100DB0000B2802D00C2806D102E04FF0000A03E015
:100DC0004FF0010A00E02CE000BF4FF47A70FFF70B
:100DD000E3FC01216048FFF706FF0FE0FFF706FF85
:100DE000009901EB810100EB410000904FF47A7013
:100DF000FFF7D2FC01215848FFF7F5FE01215648C4
:100E0000FFF7E6FE0028E9D101215448FFF7EBFE89
:100E10004FF47A70FFF7C0FC01215048FFF7E1FE64
:100E200000E0C3E700BF64200BFB00F564210098DD
:100E300000FB01F6AC19D5B1CEB9322705E03A4630
:100E40004946384600F0F8F93237C82FF7DDA5F5E6
:100E50007A724946C82000F0EFF9C82705E03A4603
:100E60004946384600F0E8F9323F002FF7DAD5B9A5
:100E7000CEB1322705E03A465146384600F026FA10
:100E80003237C82FF7DDA6F57A725146C82000F038
:100E90001DFAC82705E03A465146384600F016FAD2
:100EA000323F002FF7DAE5B3DEB316E0B8F1000FFA
:100EB0000ADBA919091B481C0122494600F0BCF9AC
:100EC000A8EB0608641E08E0A919091B481C0122AA
:100ED000514600F0FBF9A844641EA819A0F5FA7069
:100EE000A042E3D314E0B8F1000F09DB0122494628
:100EF0004FF4FA7000F0A0F9A8EB0608641E07E0B2
:100F0000012251464FF4FA7000F0E0F9A844641E43
:100F1000B4F5FA7F04D9A819A0F5FA70A042E2D27C
:100F200013E016E0B8F1000F08DB01224946204625
:100F300000F082F9A8EB0608641E06E00122514683
:100F4000204600F0C3F9A844641E14B1B4F5FA7F3A
:100F5000E8D9BDE8F88F0000000C0140000801400E
:100F600070B5002100230F22C4784CB31A4C2468BA
:100F700004F4E064C4F5E0644FEA1421C1F1040311
:100F800022FA01F2447804FA03F1847804EA0204B4
:100F900044EA01014FEA0111104C0678A15504788A
:100FA00004F01F054FF0010404FA05F405784FEA38
:100FB00065154FF0E02606EB8505C5F8004109E010
:100FC000047804F01F050124AC40054D0678761125
:100FD00045F8264070BD00000CED00E000E400E0A4
:100FE00080E100E029B1064A92690243044B9A610C
:100FF00004E0034A92698243014B9A617047000002
:10100000001002400EB501210846FFF7EBFF092151
:101010000120FFF7EBFC06210220FFF7E7FC4FF46D
:101020001070019000208DF808000C208DF8090048
:1010300001208DF80A0001A8FFF782FC17208DF827
:10104000000000208DF8010005208DF8020001202D
:101050008DF803006846FFF783FF0EBD08B5012138
:101060000420FFF7BFFF01210820FFF7BBFF01218C
:101070001020FFF7B7FF01212020FFF7B3FF012168
:101080000846FFF7AFFF01212048FFF759FD7F20F9
:10109000ADF8000014208DF8030002208DF8020046
:1010A00069461B48FFF7C2FC4FF46070ADF80000C2
:1010B00048208DF8030069461548FFF7B7FC40202B
:1010C000ADF8000048208DF8030069461148FFF78D
:1010D000ADFC4FF46E70ADF8000010208DF80300E9
:1010E00002208DF8020069460A48FFF79FFC0120A4
:1010F000ADF8000010208DF8030002208DF80200EA
:1011000069460548FFF792FC08BD00000002300068
:10111000000C0140001001400008014000210020A7
:101120002B4A126842F48032294B1A6000BF284AC9
:10113000126802F40030491C10B9B1F5A06FF6D165
:10114000F0B3244A126842F01002224B1A601A4689
:10115000126822F003021A601A46126842F0020274
:101160001A601B4A52681A4B5A601A4652685A60F3
:101170001A46526842F480625A601A46526822F453
:101180007C125A601A46526842F4E8125A601A46B3
:10119000126842F080721A6000BF0D4A126812F0A5
:1011A000007FFAD00A4A526822F00302084B5A60C4
:1011B0001A46526842F002025A6000BF044A00E038
:1011C00004E0526802F00C02082AF7D170470000D0
:1011D000001002400020024000B51348006840F0B3
:1011E00001001149086008464068104908400E494E
:1011F0004860084600680E4908400B4908600846E8
:10120000006820F4802008600846406820F4FE0052
:1012100048604FF41F008860FFF780FF4FF00060C8
:101220000449086000BD0000001002400000FFF803
:10123000FFFFF6FE08ED00E02DE9FC5F81468A46DF
:1012400093461F48B0FBF9F0009000F056F90646AF
:1012500000221C4B00F064F9044600F021F90190D3
:101260004820FFF77FFABAF1000F03D0BAF1010F5F
:101270000AD104E008211448FFF7B5FC05E0082175
:101280001148FFF7AEFC00E000BF00BF4FF00008C0
:1012900011E04FF400710C48FFF7A5FC0198FFF72F
:1012A00099FA4FF400710848FFF79BFC0198FFF78B
:1012B00091FA08F10108D845EBD3BDE8FC9F000086
:1012C00040420F000000E03F001001402DE9FC5FAC
:1012D00081468A4693461F48B0FBF9F0009000F023
:1012E0000CF9064600221C4B00F01AF9044600F0E7
:1012F000D7F801904820FFF735FABAF1000F03D074
:10130000BAF1010F0AD104E010211448FFF76BFC79
:1013100005E010211148FFF764FC00E000BF00BFAA
:101320004FF0000811E04FF480710C48FFF75BFCB0
:101330000198FFF74FFA4FF480710848FFF751FC0E
:101340000198FFF747FA08F10108D845EBD3BDE84B
:10135000FC9F000040420F000000E03F00100140F1
:101360002DE9FC5F81468A4693461E48B0FBF9F0A2
:10137000009000F0C2F8064600221B4B00F0D0F8A7
:10138000044600F08DF801904820FFF7EBF9BAF120
:10139000000F03D0BAF1010F0AD104E02021134855
:1013A000FFF721FC05E020211048FFF71AFC00E0C0
:1013B00000BF00BF4FF000080FE080210B48FFF78F
:1013C00012FC0198FFF706FA80210848FFF709FC94
:1013D0000198FFF7FFF908F10108D845EDD3BDE802
:1013E000FC9F000040420F000000E03F0010014061
:1013F000FFF734FE4820FFF7B5F9FFF703FE4DE095
:10140000FFF7F4FB07282FD2DFE800F02E040B12C1
:1014100019202700642201214FF4FA70FFF70CFF16
:101420003CE0642200214FF4FA70FFF705FF35E03D
:10143000642201214FF4FA70FFF748FF2EE0642286
:1014400000214FF4FA70FFF741FF27E064220121E9
:101450004FF4FA70FFF784FF20E0642200214FF47C
:10146000FA70FFF77DFF19E000BF00BF4FF47A70FC
:10147000FFF792F9FFF7BAFB012802D0022806D144
:1014800002E0FFF74FFC03E0FEF712FF00E005E08B
:1014900000BF4FF47A70FFF77FF900BFB0E700009C
:1014A0004FEA1153A3F58063D3F11E03A8BFD3F114
:1014B000200C08DB4FF0004242EAC12252EA5052AF
:1014C00032FA03F0704709420BD4102BC4BF00203E
:1014D000704703F5787CBCF1FF3F05D04FF0FF303B
:1014E00070474FF00000704770B500F0C3F800BFC0
:1014F0004992248000207047F0E7B0FA80F310FA98
:1015000003F10AD0C3F11D0303F580634FEA415094
:101510004FEA035202EBD12170474FF000007047B1
:10152000DFF848C170B51CEA111E1EBF1CEA131576
:101530009EEA0C0F95EA0C0F00F06F8081EA03041D
:1015400023EA4C134EEAD47E21EA4C1141F4801177
:1015500043F48013AE44A1FB024CA0FB0365AEF143
:101560007F7E361955EB0C05A1FB034C4CF10003B3
:10157000A0FB021C16EB0C06654153F10003094267
:1015800018BF46F0010613F4007F0BD14FEA033178
:101590004FEA0530340341EA155140EA16506FF026
:1015A00003020AE04FEAC3214FEAC520F40241EAF0
:1015B000555140EA56506FF0020202EB2E4201EB09
:1015C000025585EACE710AD05FEA440C18BF24F0B8
:1015D000004450F1000041F1000120EAD47040F2D3
:1015E000FE7C624500D270BDA84214BF4FF080441B
:1015F0004FF04044002E08BF0024BEF1806FA8BF0A
:10160000A1F1C041BDE8704080F282804FF000003F
:1016100001F1C04101F0004170479EEA0C0F0CEA55
:10162000131518BF95EA0C0F06D04FF0000081EAA1
:10163000030E0EF0004170BD00F01CF88900013E61
:1016400000F007B800F009B84FEA430C5FEA5C5CB1
:1016500008D081EA030100F05BB84FEA410C5FEA71
:101660005C5CF6D14FF00000014970470000FF07B5
:101670000000F87F0EF1020E2EF0030E5EF8046BF0
:10168000364205D4012A43EB030515F5001F12D895
:10169000012841EB010C1CF5001F0CD80ED14FEABC
:1016A000D17C15F5001F0CEB4C0C0CF1020C08BFA3
:1016B0004CEBD37C04E04FF0080C01E04FEAD37C04
:1016C0000CEB4C0526FA05F606F00706B6F1040CFD
:1016D00006D20EEB860CBDE870404CF0010C604762
:1016E000DFE80CF0090B02024FF000414FF0000060
:1016F000A1F5002170BD19461046012851EB0104E7
:1017000018BFD4F5001484BF002001F0004170BD63
:101710000808A0F500114FEA3101704710B5FEF737
:10172000B9FD4FF00001016010BD00000100000094
:10173000020000000300000004000000050000009B
:10174000060000000700000008000000090000007B
:10175000000000000B0000000C0000007C170008D7
:101760000000002004000000280100088017000885
:101770000400002064030000440100080000000091
:04000005080000ED02
:00000001FF
